{
  "contractName": "PaypalUSDCAssetPool",
  "abi": [
    {
      "inputs": [
        {
          "internalType": "contract ICommitmentVerifier",
          "name": "_commitmentVerifier",
          "type": "address"
        },
        {
          "internalType": "contract IWithdrawalVerifier",
          "name": "_withdrawalVerifier",
          "type": "address"
        },
        {
          "internalType": "contract IHasher",
          "name": "_hasher",
          "type": "address"
        },
        {
          "internalType": "uint32",
          "name": "_merkleTreeHeight",
          "type": "uint32"
        }
      ],
      "stateMutability": "nonpayable",
      "type": "constructor"
    },
    {
      "anonymous": false,
      "inputs": [
        {
          "indexed": true,
          "internalType": "bytes32",
          "name": "commitment",
          "type": "bytes32"
        },
        {
          "indexed": false,
          "internalType": "bytes32",
          "name": "root",
          "type": "bytes32"
        },
        {
          "indexed": false,
          "internalType": "uint32",
          "name": "leafIndex",
          "type": "uint32"
        },
        {
          "indexed": false,
          "internalType": "bytes32[]",
          "name": "pathElements",
          "type": "bytes32[]"
        },
        {
          "indexed": false,
          "internalType": "uint32",
          "name": "pathIndices",
          "type": "uint32"
        },
        {
          "indexed": false,
          "internalType": "uint256",
          "name": "timestamp",
          "type": "uint256"
        }
      ],
      "name": "InsertCommitment",
      "type": "event"
    },
    {
      "anonymous": false,
      "inputs": [
        {
          "indexed": true,
          "internalType": "address",
          "name": "previousOwner",
          "type": "address"
        },
        {
          "indexed": true,
          "internalType": "address",
          "name": "newOwner",
          "type": "address"
        }
      ],
      "name": "OwnershipTransferred",
      "type": "event"
    },
    {
      "anonymous": false,
      "inputs": [
        {
          "indexed": true,
          "internalType": "address",
          "name": "sellerAddress",
          "type": "address"
        },
        {
          "indexed": false,
          "internalType": "uint256",
          "name": "amount",
          "type": "uint256"
        }
      ],
      "name": "SellerDeposit",
      "type": "event"
    },
    {
      "anonymous": false,
      "inputs": [
        {
          "indexed": true,
          "internalType": "address",
          "name": "to",
          "type": "address"
        },
        {
          "indexed": false,
          "internalType": "uint256",
          "name": "amount",
          "type": "uint256"
        },
        {
          "indexed": false,
          "internalType": "bytes32",
          "name": "nullifierHash",
          "type": "bytes32"
        },
        {
          "indexed": false,
          "internalType": "address",
          "name": "relayer",
          "type": "address"
        },
        {
          "indexed": false,
          "internalType": "uint256",
          "name": "fee",
          "type": "uint256"
        }
      ],
      "name": "Withdrawal",
      "type": "event"
    },
    {
      "inputs": [],
      "name": "FIELD_SIZE",
      "outputs": [
        {
          "internalType": "uint256",
          "name": "",
          "type": "uint256"
        }
      ],
      "stateMutability": "view",
      "type": "function",
      "constant": true
    },
    {
      "inputs": [],
      "name": "ROOT_HISTORY_SIZE",
      "outputs": [
        {
          "internalType": "uint32",
          "name": "",
          "type": "uint32"
        }
      ],
      "stateMutability": "view",
      "type": "function",
      "constant": true
    },
    {
      "inputs": [],
      "name": "ZERO_VALUE",
      "outputs": [
        {
          "internalType": "uint256",
          "name": "",
          "type": "uint256"
        }
      ],
      "stateMutability": "view",
      "type": "function",
      "constant": true
    },
    {
      "inputs": [
        {
          "internalType": "bytes32",
          "name": "_commitment",
          "type": "bytes32"
        }
      ],
      "name": "commitmentExists",
      "outputs": [
        {
          "internalType": "bool",
          "name": "",
          "type": "bool"
        }
      ],
      "stateMutability": "view",
      "type": "function",
      "constant": true
    },
    {
      "inputs": [
        {
          "internalType": "bytes32",
          "name": "",
          "type": "bytes32"
        }
      ],
      "name": "commitmentLog",
      "outputs": [
        {
          "internalType": "uint256",
          "name": "amount",
          "type": "uint256"
        },
        {
          "internalType": "bool",
          "name": "isProven",
          "type": "bool"
        }
      ],
      "stateMutability": "view",
      "type": "function",
      "constant": true
    },
    {
      "inputs": [],
      "name": "commitmentVerifier",
      "outputs": [
        {
          "internalType": "contract ICommitmentVerifier",
          "name": "",
          "type": "address"
        }
      ],
      "stateMutability": "view",
      "type": "function",
      "constant": true
    },
    {
      "inputs": [],
      "name": "currentRootIndex",
      "outputs": [
        {
          "internalType": "uint32",
          "name": "",
          "type": "uint32"
        }
      ],
      "stateMutability": "view",
      "type": "function",
      "constant": true
    },
    {
      "inputs": [
        {
          "internalType": "uint256",
          "name": "",
          "type": "uint256"
        }
      ],
      "name": "filledSubtrees",
      "outputs": [
        {
          "internalType": "bytes32",
          "name": "",
          "type": "bytes32"
        }
      ],
      "stateMutability": "view",
      "type": "function",
      "constant": true
    },
    {
      "inputs": [],
      "name": "getLastRoot",
      "outputs": [
        {
          "internalType": "bytes32",
          "name": "",
          "type": "bytes32"
        }
      ],
      "stateMutability": "view",
      "type": "function",
      "constant": true
    },
    {
      "inputs": [
        {
          "internalType": "contract IHasher",
          "name": "_hasher",
          "type": "address"
        },
        {
          "internalType": "bytes32",
          "name": "_left",
          "type": "bytes32"
        },
        {
          "internalType": "bytes32",
          "name": "_right",
          "type": "bytes32"
        }
      ],
      "name": "hashLeftRight",
      "outputs": [
        {
          "internalType": "bytes32",
          "name": "",
          "type": "bytes32"
        }
      ],
      "stateMutability": "pure",
      "type": "function",
      "constant": true
    },
    {
      "inputs": [],
      "name": "hasher",
      "outputs": [
        {
          "internalType": "contract IHasher",
          "name": "",
          "type": "address"
        }
      ],
      "stateMutability": "view",
      "type": "function",
      "constant": true
    },
    {
      "inputs": [
        {
          "internalType": "bytes32",
          "name": "_root",
          "type": "bytes32"
        }
      ],
      "name": "isKnownRoot",
      "outputs": [
        {
          "internalType": "bool",
          "name": "",
          "type": "bool"
        }
      ],
      "stateMutability": "view",
      "type": "function",
      "constant": true
    },
    {
      "inputs": [
        {
          "internalType": "bytes32",
          "name": "_nullifierHash",
          "type": "bytes32"
        }
      ],
      "name": "isSpent",
      "outputs": [
        {
          "internalType": "bool",
          "name": "",
          "type": "bool"
        }
      ],
      "stateMutability": "view",
      "type": "function",
      "constant": true
    },
    {
      "inputs": [],
      "name": "levels",
      "outputs": [
        {
          "internalType": "uint32",
          "name": "",
          "type": "uint32"
        }
      ],
      "stateMutability": "view",
      "type": "function",
      "constant": true
    },
    {
      "inputs": [
        {
          "internalType": "uint256",
          "name": "left",
          "type": "uint256"
        },
        {
          "internalType": "uint256",
          "name": "right",
          "type": "uint256"
        }
      ],
      "name": "mimcHash",
      "outputs": [
        {
          "internalType": "bytes32",
          "name": "",
          "type": "bytes32"
        }
      ],
      "stateMutability": "view",
      "type": "function",
      "constant": true
    },
    {
      "inputs": [],
      "name": "nextIndex",
      "outputs": [
        {
          "internalType": "uint32",
          "name": "",
          "type": "uint32"
        }
      ],
      "stateMutability": "view",
      "type": "function",
      "constant": true
    },
    {
      "inputs": [
        {
          "internalType": "bytes32",
          "name": "",
          "type": "bytes32"
        }
      ],
      "name": "nullifierHashes",
      "outputs": [
        {
          "internalType": "bool",
          "name": "",
          "type": "bool"
        }
      ],
      "stateMutability": "view",
      "type": "function",
      "constant": true
    },
    {
      "inputs": [],
      "name": "owner",
      "outputs": [
        {
          "internalType": "address",
          "name": "",
          "type": "address"
        }
      ],
      "stateMutability": "view",
      "type": "function",
      "constant": true
    },
    {
      "inputs": [
        {
          "internalType": "uint256[8]",
          "name": "_proofData",
          "type": "uint256[8]"
        },
        {
          "internalType": "uint256[2]",
          "name": "_publicInputs",
          "type": "uint256[2]"
        }
      ],
      "name": "proveCommitment",
      "outputs": [],
      "stateMutability": "nonpayable",
      "type": "function"
    },
    {
      "inputs": [
        {
          "internalType": "bytes32",
          "name": "_commitment",
          "type": "bytes32"
        },
        {
          "internalType": "uint256",
          "name": "_amount",
          "type": "uint256"
        }
      ],
      "name": "registerCommitment",
      "outputs": [],
      "stateMutability": "nonpayable",
      "type": "function"
    },
    {
      "inputs": [],
      "name": "renounceOwnership",
      "outputs": [],
      "stateMutability": "nonpayable",
      "type": "function"
    },
    {
      "inputs": [
        {
          "internalType": "uint256",
          "name": "",
          "type": "uint256"
        }
      ],
      "name": "roots",
      "outputs": [
        {
          "internalType": "bytes32",
          "name": "",
          "type": "bytes32"
        }
      ],
      "stateMutability": "view",
      "type": "function",
      "constant": true
    },
    {
      "inputs": [],
      "name": "sellerDeposit",
      "outputs": [],
      "stateMutability": "payable",
      "type": "function",
      "payable": true
    },
    {
      "inputs": [
        {
          "internalType": "address",
          "name": "",
          "type": "address"
        }
      ],
      "name": "sellers",
      "outputs": [
        {
          "internalType": "uint256",
          "name": "balance",
          "type": "uint256"
        },
        {
          "internalType": "string",
          "name": "name",
          "type": "string"
        }
      ],
      "stateMutability": "view",
      "type": "function",
      "constant": true
    },
    {
      "inputs": [
        {
          "internalType": "address",
          "name": "",
          "type": "address"
        }
      ],
      "name": "sellersPaypalAccount",
      "outputs": [
        {
          "internalType": "string",
          "name": "",
          "type": "string"
        }
      ],
      "stateMutability": "view",
      "type": "function",
      "constant": true
    },
    {
      "inputs": [
        {
          "internalType": "address",
          "name": "newOwner",
          "type": "address"
        }
      ],
      "name": "transferOwnership",
      "outputs": [],
      "stateMutability": "nonpayable",
      "type": "function"
    },
    {
      "inputs": [
        {
          "internalType": "uint256[8]",
          "name": "_proofData",
          "type": "uint256[8]"
        },
        {
          "internalType": "uint256[6]",
          "name": "_publicInputs",
          "type": "uint256[6]"
        }
      ],
      "name": "withdraw",
      "outputs": [],
      "stateMutability": "payable",
      "type": "function",
      "payable": true
    },
    {
      "inputs": [],
      "name": "withdrawalVerifier",
      "outputs": [
        {
          "internalType": "contract IWithdrawalVerifier",
          "name": "",
          "type": "address"
        }
      ],
      "stateMutability": "view",
      "type": "function",
      "constant": true
    },
    {
      "inputs": [
        {
          "internalType": "uint256",
          "name": "i",
          "type": "uint256"
        }
      ],
      "name": "zeros",
      "outputs": [
        {
          "internalType": "bytes32",
          "name": "",
          "type": "bytes32"
        }
      ],
      "stateMutability": "pure",
      "type": "function",
      "constant": true
    },
    {
      "inputs": [
        {
          "internalType": "string",
          "name": "_name",
          "type": "string"
        },
        {
          "internalType": "string",
          "name": "_paypalEmailAddress",
          "type": "string"
        }
      ],
      "name": "configSeller",
      "outputs": [],
      "stateMutability": "nonpayable",
      "type": "function"
    }
  ],
  "bytecode": "0x60e06040526000600360006101000a81548163ffffffff021916908363ffffffff1602179055506000600360046101000a81548163ffffffff021916908363ffffffff1602179055503480156200005557600080fd5b5060405162004d8f38038062004d8f83398181016040528101906200007b919062000890565b83838383808260008263ffffffff1611620000cd576040517f08c379a0000000000000000000000000000000000000000000000000000000008152600401620000c49062000a0a565b60405180910390fd5b60208263ffffffff161062000119576040517f08c379a00000000000000000000000000000000000000000000000000000000081526004016200011090620009e8565b60405180910390fd5b816000806101000a81548163ffffffff021916908363ffffffff1602179055508073ffffffffffffffffffffffffffffffffffffffff1660808173ffffffffffffffffffffffffffffffffffffffff1660601b8152505060005b8263ffffffff168163ffffffff161015620001d2576200019f8163ffffffff16620002b560201b60201c565b600160008363ffffffff168152602001908152602001600020819055508080620001c99062000b1a565b91505062000173565b50620001f8600183620001e6919062000a5f565b63ffffffff16620002b560201b60201c565b600260008081526020019081526020016000208190555050506001600481905550620002396200022d6200076660201b60201c565b6200076e60201b60201c565b8373ffffffffffffffffffffffffffffffffffffffff1660a08173ffffffffffffffffffffffffffffffffffffffff1660601b815250508273ffffffffffffffffffffffffffffffffffffffff1660c08173ffffffffffffffffffffffffffffffffffffffff1660601b81525050505050505050505062000be3565b600080821415620002ec577f01f7c0801c91910ee966819dcbce0c940c0618cd33b2dea878b1e80275d8b94a60001b905062000761565b600182141562000322577f24816049a618fb575d582e49f278b6d6ed8df070dd4c6f42b5a2591bf258a5c760001b905062000761565b600282141562000358577f0aa6ec0a6dbb444786866edc923652ed38fd4c331460f9cc17664dfb08a60c4160001b905062000761565b60038214156200038e577f21578f17ca98798034d7f43200df613efbbe03b2e73a71f1bbfe27719d63ec6360001b905062000761565b6004821415620003c4577f1ac20c1e1bc1ecb8fe2a8c35811b34129efd72ef5c28ec52a73feeb11d5eeb2360001b905062000761565b6005821415620003fa577f2680ec4ecaeebf96035b6ce23cdb5fc0367199ebb14f8b10109c87f3a8e9d7cf60001b905062000761565b600682141562000430577f0fcde95bf0d8f94ba1d4d717cbfa919332d9021cf4d7671a3922ee8040c27c4a60001b905062000761565b600782141562000466577f14cf909d59ba36343fd30566ef5b4056991288c120b14bd37e816813fdc0992a60001b905062000761565b60088214156200049c577f076bfc8a3e7b37e24befe23b0f698d07027f467d649ba5dc81216cd555ca4e2760001b905062000761565b6009821415620004d2577f0f57eb010e999daeebb197d21bcf54cbf5687422b044d58ba73189b82cf6134660001b905062000761565b600a82141562000508577f285daa59cd5edaf5aad2ad16c350c779026c3018ed4245b9294b7b4085f9d9a260001b905062000761565b600b8214156200053e577f2fe3af955ad2b062d63538714fca18418c39b7c5a748c103d00b519c5be6f85360001b905062000761565b600c82141562000574577f2cb004612cebb6be147a95f69014ba4aea41c32dc771851f696e30a166367c6960001b905062000761565b600d821415620005aa577f16b679b03ed416ac3bf10078162542fa646fec43486e9c731deccf3e58492bfb60001b905062000761565b600e821415620005e0577f0251aabe71c1e8989634b906c9a2f85a8025b4da4aa22f414a56051327c4d0e260001b905062000761565b600f82141562000616577f18178e3528883bb3587730a962e93f91df48fdc0752cfe562d7f51a3bc82886460001b905062000761565b60108214156200064c577f0fc36a09626e32928aee5780008d1aff581c8052566b7e5abed902f95cbe0f4060001b905062000761565b601182141562000682577f0ca4b5f7171b55787f86e054df192604506aee630f389adb4d075ed8104c70df60001b905062000761565b6012821415620006b8577f27c144cc7447fd24714893307f9f30debc0481d61c175e3179c2045e9159a48360001b905062000761565b6013821415620006ee577f05fcb5998a7d9ad77b15d510c5d17008582ea07273a8c974d1544602a619ff8b60001b905062000761565b601482141562000724577f23f27b4fa98be0dc2584d0f2b0cb352c4756880958026505da65b79bcd14d1b560001b905062000761565b6040517f08c379a0000000000000000000000000000000000000000000000000000000008152600401620007589062000a2c565b60405180910390fd5b919050565b600033905090565b6000600560009054906101000a900473ffffffffffffffffffffffffffffffffffffffff16905081600560006101000a81548173ffffffffffffffffffffffffffffffffffffffff021916908373ffffffffffffffffffffffffffffffffffffffff1602179055508173ffffffffffffffffffffffffffffffffffffffff168173ffffffffffffffffffffffffffffffffffffffff167f8be0079c531659141344cd1fd0a4f28419497f9722a3daafe3b4186f6b6457e060405160405180910390a35050565b600081519050620008458162000b7b565b92915050565b6000815190506200085c8162000b95565b92915050565b600081519050620008738162000baf565b92915050565b6000815190506200088a8162000bc9565b92915050565b60008060008060808587031215620008a757600080fd5b6000620008b78782880162000834565b9450506020620008ca8782880162000862565b9350506040620008dd878288016200084b565b9250506060620008f08782880162000879565b91505092959194509250565b60006200090b601e8362000a4e565b91507f5f6c6576656c732073686f756c64206265206c657373207468616e20333200006000830152602082019050919050565b60006200094d60238362000a4e565b91507f5f6c6576656c732073686f756c642062652067726561746572207468616e207a60008301527f65726f00000000000000000000000000000000000000000000000000000000006020830152604082019050919050565b6000620009b560138362000a4e565b91507f496e646578206f7574206f6620626f756e6473000000000000000000000000006000830152602082019050919050565b6000602082019050818103600083015262000a0381620008fc565b9050919050565b6000602082019050818103600083015262000a25816200093e565b9050919050565b6000602082019050818103600083015262000a4781620009a6565b9050919050565b600082825260208201905092915050565b600062000a6c8262000b0a565b915062000a798362000b0a565b92508282101562000a8f5762000a8e62000b4c565b5b828203905092915050565b600062000aa78262000aea565b9050919050565b600062000abb8262000a9a565b9050919050565b600062000acf8262000a9a565b9050919050565b600062000ae38262000a9a565b9050919050565b600073ffffffffffffffffffffffffffffffffffffffff82169050919050565b600063ffffffff82169050919050565b600062000b278262000b0a565b915063ffffffff82141562000b415762000b4062000b4c565b5b600182019050919050565b7f4e487b7100000000000000000000000000000000000000000000000000000000600052601160045260246000fd5b62000b868162000aae565b811462000b9257600080fd5b50565b62000ba08162000ac2565b811462000bac57600080fd5b50565b62000bba8162000ad6565b811462000bc657600080fd5b50565b62000bd48162000b0a565b811462000be057600080fd5b50565b60805160601c60a05160601c60c05160601c61415762000c386000396000818161084c0152610ae101526000818161170d0152611cb801526000818161078f015281816122d501526128da01526141576000f3fe6080604052600436106101cd5760003560e01c80638f2e0665116100f7578063dcb4c60a11610095578063ed33639f11610064578063ed33639f146106ae578063f178e47c146106d9578063f2fde38b14610716578063fc7e9c6f1461073f576101cd565b8063dcb4c60a146105e0578063e5285dcc14610609578063e829558814610646578063ec73295914610683576101cd565b8063ba70f757116100d1578063ba70f75714610522578063c2b40ae41461054d578063c6e892581461058a578063cd87a3b4146105b5576101cd565b80638f2e0665146104a557806390eeb02b146104ce578063acb72354146104f9576101cd565b806367367e2b1161016f578063787d30d01161013e578063787d30d0146103c257806386307865146104005780638da5cb5b1461043d5780638ea3099e14610468576101cd565b806367367e2b146103145780636d47ab72146103305780636d9833e31461036e578063715018a6146103ab576101cd565b8063414a37ba116101ab578063414a37ba146102775780634c1786ea146102a25780634ecf518b146102ac57806358a70cb9146102d7576101cd565b806317cc915c146101d25780632d38a38a1461020f57806337f9fe261461024c575b600080fd5b3480156101de57600080fd5b506101f960048036038101906101f49190612c8e565b61076a565b6040516102069190613668565b60405180910390f35b34801561021b57600080fd5b5061023660048036038101906102319190612dd7565b61078a565b6040516102439190613683565b60405180910390f35b34801561025857600080fd5b5061026161084a565b60405161026e919061372e565b60405180910390f35b34801561028357600080fd5b5061028c61086e565b604051610299919061396b565b60405180910390f35b6102aa610892565b005b3480156102b857600080fd5b506102c161093b565b6040516102ce9190613a5b565b60405180910390f35b3480156102e357600080fd5b506102fe60048036038101906102f99190612bc0565b61094f565b60405161030b9190613749565b60405180910390f35b61032e60048036038101906103299190612c27565b6109ef565b005b34801561033c57600080fd5b5061035760048036038101906103529190612bc0565b61112b565b6040516103659291906139f4565b60405180910390f35b34801561037a57600080fd5b5061039560048036038101906103909190612c8e565b6111d7565b6040516103a29190613668565b60405180910390f35b3480156103b757600080fd5b506103c0611278565b005b3480156103ce57600080fd5b506103e960048036038101906103e49190612c8e565b611300565b6040516103f7929190613986565b60405180910390f35b34801561040c57600080fd5b5061042760048036038101906104229190612c8e565b611331565b6040516104349190613668565b60405180910390f35b34801561044957600080fd5b50610452611353565b60405161045f91906135bf565b60405180910390f35b34801561047457600080fd5b5061048f600480360381019061048a9190612cf3565b61137d565b60405161049c9190613683565b60405180910390f35b3480156104b157600080fd5b506104cc60048036038101906104c79190612be9565b6114ef565b005b3480156104da57600080fd5b506104e3611ba6565b6040516104f09190613a5b565b60405180910390f35b34801561050557600080fd5b50610520600480360381019061051b9190612d42565b611bbc565b005b34801561052e57600080fd5b50610537611c6b565b6040516105449190613683565b60405180910390f35b34801561055957600080fd5b50610574600480360381019061056f9190612dae565b611c9e565b6040516105819190613683565b60405180910390f35b34801561059657600080fd5b5061059f611cb6565b6040516105ac91906136f8565b60405180910390f35b3480156105c157600080fd5b506105ca611cda565b6040516105d79190613a5b565b60405180910390f35b3480156105ec57600080fd5b5061060760048036038101906106029190612cb7565b611cdf565b005b34801561061557600080fd5b50610630600480360381019061062b9190612c8e565b611e00565b60405161063d9190613668565b60405180910390f35b34801561065257600080fd5b5061066d60048036038101906106689190612dae565b611e2a565b60405161067a9190613683565b60405180910390f35b34801561068f57600080fd5b506106986122af565b6040516106a5919061396b565b60405180910390f35b3480156106ba57600080fd5b506106c36122d3565b6040516106d09190613713565b60405180910390f35b3480156106e557600080fd5b5061070060048036038101906106fb9190612dae565b6122f7565b60405161070d9190613683565b60405180910390f35b34801561072257600080fd5b5061073d60048036038101906107389190612bc0565b61230f565b005b34801561074b57600080fd5b50610754612407565b6040516107619190613a5b565b60405180910390f35b60086020528060005260406000206000915054906101000a900460ff1681565b6000807f000000000000000000000000000000000000000000000000000000000000000073ffffffffffffffffffffffffffffffffffffffff16633f1a1187858560006040518463ffffffff1660e01b81526004016107eb93929190613a24565b604080518083038186803b15801561080257600080fd5b505afa158015610816573d6000803e3d6000fd5b505050506040513d601f19601f8201168201806040525081019061083a9190612e13565b5090508060001b91505092915050565b7f000000000000000000000000000000000000000000000000000000000000000081565b7f30644e72e131a029b85045b68181585d2833e84879b9709143e1f593f000000181565b34600660003373ffffffffffffffffffffffffffffffffffffffff1673ffffffffffffffffffffffffffffffffffffffff16815260200190815260200160002060000160008282546108e49190613b9c565b925050819055503373ffffffffffffffffffffffffffffffffffffffff167f327ca9276da9073b583440165cb887319e7aeaf4003f14e92c1bbeee913e9b9c34604051610931919061396b565b60405180910390a2565b60008054906101000a900463ffffffff1681565b6009602052806000526040600020600091509050805461096e90613f44565b80601f016020809104026020016040519081016040528092919081815260200182805461099a90613f44565b80156109e75780601f106109bc576101008083540402835291602001916109e7565b820191906000526020600020905b8154815290600101906020018083116109ca57829003601f168201915b505050505081565b60026004541415610a35576040517f08c379a0000000000000000000000000000000000000000000000000000000008152600401610a2c9061394b565b60405180910390fd5b60026004819055506008600082600160068110610a7b577f4e487b7100000000000000000000000000000000000000000000000000000000600052603260045260246000fd5b602002013560001b815260200190815260200160002060009054906101000a900460ff1615610adf576040517f08c379a0000000000000000000000000000000000000000000000000000000008152600401610ad69061380b565b60405180910390fd5b7f000000000000000000000000000000000000000000000000000000000000000073ffffffffffffffffffffffffffffffffffffffff1663f398789b604051806040016040528085600060088110610b60577f4e487b7100000000000000000000000000000000000000000000000000000000600052603260045260246000fd5b6020020135815260200185600160088110610ba4577f4e487b7100000000000000000000000000000000000000000000000000000000600052603260045260246000fd5b60200201358152506040518060400160405280604051806040016040528088600260088110610bfc577f4e487b7100000000000000000000000000000000000000000000000000000000600052603260045260246000fd5b6020020135815260200188600360088110610c40577f4e487b7100000000000000000000000000000000000000000000000000000000600052603260045260246000fd5b60200201358152508152602001604051806040016040528088600460088110610c92577f4e487b7100000000000000000000000000000000000000000000000000000000600052603260045260246000fd5b6020020135815260200188600560088110610cd6577f4e487b7100000000000000000000000000000000000000000000000000000000600052603260045260246000fd5b6020020135815250815250604051806040016040528087600660088110610d26577f4e487b7100000000000000000000000000000000000000000000000000000000600052603260045260246000fd5b6020020135815260200187600760088110610d6a577f4e487b7100000000000000000000000000000000000000000000000000000000600052603260045260246000fd5b6020020135815250856040518563ffffffff1660e01b8152600401610d929493929190613621565b60206040518083038186803b158015610daa57600080fd5b505afa158015610dbe573d6000803e3d6000fd5b505050506040513d601f19601f82011682018060405250810190610de29190612c65565b610e21576040517f08c379a0000000000000000000000000000000000000000000000000000000008152600401610e189061384b565b60405180910390fd5b60016008600083600160068110610e61577f4e487b7100000000000000000000000000000000000000000000000000000000600052603260045260246000fd5b602002013560001b815260200190815260200160002060006101000a81548160ff021916908315150217905550610f9281600260068110610ecb577f4e487b7100000000000000000000000000000000000000000000000000000000600052603260045260246000fd5b602002013582600460068110610f0a577f4e487b7100000000000000000000000000000000000000000000000000000000600052603260045260246000fd5b602002013583600360068110610f49577f4e487b7100000000000000000000000000000000000000000000000000000000600052603260045260246000fd5b602002013584600560068110610f88577f4e487b7100000000000000000000000000000000000000000000000000000000600052603260045260246000fd5b602002013561241d565b80600260068110610fcc577f4e487b7100000000000000000000000000000000000000000000000000000000600052603260045260246000fd5b602002013573ffffffffffffffffffffffffffffffffffffffff167fd32e00d318d852975e4e7dfe93b3a71394ae5ebbe7c62c7f12d188b44c6adf4e82600360068110611042577f4e487b7100000000000000000000000000000000000000000000000000000000600052603260045260246000fd5b602002013583600160068110611081577f4e487b7100000000000000000000000000000000000000000000000000000000600052603260045260246000fd5b602002013560001b846004600681106110c3577f4e487b7100000000000000000000000000000000000000000000000000000000600052603260045260246000fd5b602002013585600560068110611102577f4e487b7100000000000000000000000000000000000000000000000000000000600052603260045260246000fd5b602002013560405161111794939291906139af565b60405180910390a260016004819055505050565b600660205280600052604060002060009150905080600001549080600101805461115490613f44565b80601f016020809104026020016040519081016040528092919081815260200182805461118090613f44565b80156111cd5780601f106111a2576101008083540402835291602001916111cd565b820191906000526020600020905b8154815290600101906020018083116111b057829003601f168201915b5050505050905082565b60008060001b8214156111ed5760009050611273565b6000600360009054906101000a900463ffffffff16905060008190505b600260008263ffffffff1681526020019081526020016000205484141561123657600192505050611273565b60008163ffffffff16141561124a57601e90505b808061125590613f1a565b9150508163ffffffff168163ffffffff16141561120a576000925050505b919050565b611280612591565b73ffffffffffffffffffffffffffffffffffffffff1661129e611353565b73ffffffffffffffffffffffffffffffffffffffff16146112f4576040517f08c379a00000000000000000000000000000000000000000000000000000000081526004016112eb9061386b565b60405180910390fd5b6112fe6000612599565b565b60076020528060005260406000206000915090508060000154908060010160009054906101000a900460ff16905082565b6000806007600084815260200190815260200160002060000154119050919050565b6000600560009054906101000a900473ffffffffffffffffffffffffffffffffffffffff16905090565b60007f30644e72e131a029b85045b68181585d2833e84879b9709143e1f593f00000018360001c106113e4576040517f08c379a00000000000000000000000000000000000000000000000000000000081526004016113db906137cb565b60405180910390fd5b7f30644e72e131a029b85045b68181585d2833e84879b9709143e1f593f00000018260001c10611449576040517f08c379a00000000000000000000000000000000000000000000000000000000081526004016114409061382b565b60405180910390fd5b60008473ffffffffffffffffffffffffffffffffffffffff16633f1a11878560001c8560001c60006040518463ffffffff1660e01b815260040161148f93929190613a24565b604080518083038186803b1580156114a657600080fd5b505afa1580156114ba573d6000803e3d6000fd5b505050506040513d601f19601f820116820180604052508101906114de9190612e13565b5090508060001b9150509392505050565b6000600760008360006002811061152f577f4e487b7100000000000000000000000000000000000000000000000000000000600052603260045260246000fd5b602002013560001b81526020019081526020016000206000015411611589576040517f08c379a0000000000000000000000000000000000000000000000000000000008152600401611580906137eb565b60405180910390fd5b806001600281106115c3577f4e487b7100000000000000000000000000000000000000000000000000000000600052603260045260246000fd5b60200201356007600083600060028110611606577f4e487b7100000000000000000000000000000000000000000000000000000000600052603260045260246000fd5b602002013560001b81526020019081526020016000206000015414611660576040517f08c379a0000000000000000000000000000000000000000000000000000000008152600401611657906138eb565b60405180910390fd5b6000151560076000836000600281106116a2577f4e487b7100000000000000000000000000000000000000000000000000000000600052603260045260246000fd5b602002013560001b815260200190815260200160002060010160009054906101000a900460ff1615151461170b576040517f08c379a00000000000000000000000000000000000000000000000000000000081526004016117029061378b565b60405180910390fd5b7f000000000000000000000000000000000000000000000000000000000000000073ffffffffffffffffffffffffffffffffffffffff1663f5c9d69e60405180604001604052808560006008811061178c577f4e487b7100000000000000000000000000000000000000000000000000000000600052603260045260246000fd5b60200201358152602001856001600881106117d0577f4e487b7100000000000000000000000000000000000000000000000000000000600052603260045260246000fd5b60200201358152506040518060400160405280604051806040016040528088600260088110611828577f4e487b7100000000000000000000000000000000000000000000000000000000600052603260045260246000fd5b602002013581526020018860036008811061186c577f4e487b7100000000000000000000000000000000000000000000000000000000600052603260045260246000fd5b602002013581525081526020016040518060400160405280886004600881106118be577f4e487b7100000000000000000000000000000000000000000000000000000000600052603260045260246000fd5b6020020135815260200188600560088110611902577f4e487b7100000000000000000000000000000000000000000000000000000000600052603260045260246000fd5b6020020135815250815250604051806040016040528087600660088110611952577f4e487b7100000000000000000000000000000000000000000000000000000000600052603260045260246000fd5b6020020135815260200187600760088110611996577f4e487b7100000000000000000000000000000000000000000000000000000000600052603260045260246000fd5b6020020135815250856040518563ffffffff1660e01b81526004016119be94939291906135da565b60206040518083038186803b1580156119d657600080fd5b505afa1580156119ea573d6000803e3d6000fd5b505050506040513d601f19601f82011682018060405250810190611a0e9190612c65565b611a4d576040517f08c379a0000000000000000000000000000000000000000000000000000000008152600401611a449061388b565b60405180910390fd5b60016007600083600060028110611a8d577f4e487b7100000000000000000000000000000000000000000000000000000000600052603260045260246000fd5b602002013560001b815260200190815260200160002060010160006101000a81548160ff021916908315150217905550600080600080611b0d85600060028110611b00577f4e487b7100000000000000000000000000000000000000000000000000000000600052603260045260246000fd5b602002013560001b61265f565b9350935093509350611b1d6129db565b84600060028110611b57577f4e487b7100000000000000000000000000000000000000000000000000000000600052603260045260246000fd5b602002013560001b7fa7140553099c9d3bb557e32392e58b108037a179e3ba217d3a4c69dad385035d8585858542604051611b9695949392919061369e565b60405180910390a2505050505050565b600360009054906101000a900463ffffffff1681565b81600660003373ffffffffffffffffffffffffffffffffffffffff1673ffffffffffffffffffffffffffffffffffffffff1681526020019081526020016000206001019080519060200190611c129291906129dd565b5080600960003373ffffffffffffffffffffffffffffffffffffffff1673ffffffffffffffffffffffffffffffffffffffff1681526020019081526020016000209080519060200190611c669291906129dd565b505050565b600060026000600360009054906101000a900463ffffffff1663ffffffff16815260200190815260200160002054905090565b60026020528060005260406000206000915090505481565b7f000000000000000000000000000000000000000000000000000000000000000081565b601e81565b611ce7612591565b73ffffffffffffffffffffffffffffffffffffffff16611d05611353565b73ffffffffffffffffffffffffffffffffffffffff1614611d5b576040517f08c379a0000000000000000000000000000000000000000000000000000000008152600401611d529061386b565b60405180910390fd5b611d6482611331565b15611da4576040517f08c379a0000000000000000000000000000000000000000000000000000000008152600401611d9b906137ab565b60405180910390fd5b604051806040016040528082815260200160001515815250600760008481526020019081526020016000206000820151816000015560208201518160010160006101000a81548160ff0219169083151502179055509050505050565b60006008600083815260200190815260200160002060009054906101000a900460ff169050919050565b600080821415611e5f577f01f7c0801c91910ee966819dcbce0c940c0618cd33b2dea878b1e80275d8b94a60001b90506122aa565b6001821415611e93577f24816049a618fb575d582e49f278b6d6ed8df070dd4c6f42b5a2591bf258a5c760001b90506122aa565b6002821415611ec7577f0aa6ec0a6dbb444786866edc923652ed38fd4c331460f9cc17664dfb08a60c4160001b90506122aa565b6003821415611efb577f21578f17ca98798034d7f43200df613efbbe03b2e73a71f1bbfe27719d63ec6360001b90506122aa565b6004821415611f2f577f1ac20c1e1bc1ecb8fe2a8c35811b34129efd72ef5c28ec52a73feeb11d5eeb2360001b90506122aa565b6005821415611f63577f2680ec4ecaeebf96035b6ce23cdb5fc0367199ebb14f8b10109c87f3a8e9d7cf60001b90506122aa565b6006821415611f97577f0fcde95bf0d8f94ba1d4d717cbfa919332d9021cf4d7671a3922ee8040c27c4a60001b90506122aa565b6007821415611fcb577f14cf909d59ba36343fd30566ef5b4056991288c120b14bd37e816813fdc0992a60001b90506122aa565b6008821415611fff577f076bfc8a3e7b37e24befe23b0f698d07027f467d649ba5dc81216cd555ca4e2760001b90506122aa565b6009821415612033577f0f57eb010e999daeebb197d21bcf54cbf5687422b044d58ba73189b82cf6134660001b90506122aa565b600a821415612067577f285daa59cd5edaf5aad2ad16c350c779026c3018ed4245b9294b7b4085f9d9a260001b90506122aa565b600b82141561209b577f2fe3af955ad2b062d63538714fca18418c39b7c5a748c103d00b519c5be6f85360001b90506122aa565b600c8214156120cf577f2cb004612cebb6be147a95f69014ba4aea41c32dc771851f696e30a166367c6960001b90506122aa565b600d821415612103577f16b679b03ed416ac3bf10078162542fa646fec43486e9c731deccf3e58492bfb60001b90506122aa565b600e821415612137577f0251aabe71c1e8989634b906c9a2f85a8025b4da4aa22f414a56051327c4d0e260001b90506122aa565b600f82141561216b577f18178e3528883bb3587730a962e93f91df48fdc0752cfe562d7f51a3bc82886460001b90506122aa565b601082141561219f577f0fc36a09626e32928aee5780008d1aff581c8052566b7e5abed902f95cbe0f4060001b90506122aa565b60118214156121d3577f0ca4b5f7171b55787f86e054df192604506aee630f389adb4d075ed8104c70df60001b90506122aa565b6012821415612207577f27c144cc7447fd24714893307f9f30debc0481d61c175e3179c2045e9159a48360001b90506122aa565b601382141561223b577f05fcb5998a7d9ad77b15d510c5d17008582ea07273a8c974d1544602a619ff8b60001b90506122aa565b601482141561226f577f23f27b4fa98be0dc2584d0f2b0cb352c4756880958026505da65b79bcd14d1b560001b90506122aa565b6040517f08c379a00000000000000000000000000000000000000000000000000000000081526004016122a19061390b565b60405180910390fd5b919050565b7f01f7c0801c91910ee966819dcbce0c940c0618cd33b2dea878b1e80275d8b94a81565b7f000000000000000000000000000000000000000000000000000000000000000081565b60016020528060005260406000206000915090505481565b612317612591565b73ffffffffffffffffffffffffffffffffffffffff16612335611353565b73ffffffffffffffffffffffffffffffffffffffff161461238b576040517f08c379a00000000000000000000000000000000000000000000000000000000081526004016123829061386b565b60405180910390fd5b600073ffffffffffffffffffffffffffffffffffffffff168173ffffffffffffffffffffffffffffffffffffffff1614156123fb576040517f08c379a00000000000000000000000000000000000000000000000000000000081526004016123f29061376b565b60405180910390fd5b61240481612599565b50565b600360049054906101000a900463ffffffff1681565b60008473ffffffffffffffffffffffffffffffffffffffff1682846124429190613db2565b60405161244e906135aa565b60006040518083038185875af1925050503d806000811461248b576040519150601f19603f3d011682016040523d82523d6000602084013e612490565b606091505b50509050806124d4576040517f08c379a00000000000000000000000000000000000000000000000000000000081526004016124cb906138ab565b60405180910390fd5b600082111561258a578373ffffffffffffffffffffffffffffffffffffffff1682604051612501906135aa565b60006040518083038185875af1925050503d806000811461253e576040519150601f19603f3d011682016040523d82523d6000602084013e612543565b606091505b50508091505080612589576040517f08c379a0000000000000000000000000000000000000000000000000000000008152600401612580906138cb565b60405180910390fd5b5b5050505050565b600033905090565b6000600560009054906101000a900473ffffffffffffffffffffffffffffffffffffffff16905081600560006101000a81548173ffffffffffffffffffffffffffffffffffffffff021916908373ffffffffffffffffffffffffffffffffffffffff1602179055508173ffffffffffffffffffffffffffffffffffffffff168173ffffffffffffffffffffffffffffffffffffffff167f8be0079c531659141344cd1fd0a4f28419497f9722a3daafe3b4186f6b6457e060405160405180910390a35050565b6000806060600080600360049054906101000a900463ffffffff16905060008054906101000a900463ffffffff1660026126999190613cb0565b63ffffffff168163ffffffff1614156126e7576040517f08c379a00000000000000000000000000000000000000000000000000000000081526004016126de9061392b565b60405180910390fd5b6000819050600087905060008060008060009054906101000a900463ffffffff1663ffffffff1667ffffffffffffffff81111561274d577f4e487b7100000000000000000000000000000000000000000000000000000000600052604160045260246000fd5b60405190808252806020026020018201604052801561277b5781602001602082028036833780820191505090505b5090506000805b60008054906101000a900463ffffffff1663ffffffff168163ffffffff1610156129245760006002886127b59190613fa3565b63ffffffff161415612851578594506127d38163ffffffff16611e2a565b935085600160008363ffffffff1681526020019081526020016000208190555083838263ffffffff1681518110612833577f4e487b7100000000000000000000000000000000000000000000000000000000600052603260045260246000fd5b60200260200101818152505060018263ffffffff16901b91506128d5565b600160008263ffffffff16815260200190815260200160002054945085935084838263ffffffff16815181106128b0577f4e487b7100000000000000000000000000000000000000000000000000000000600052603260045260246000fd5b6020026020010181815250506001808363ffffffff16901b6128d29190613bf2565b91505b6129007f0000000000000000000000000000000000000000000000000000000000000000868661137d565b955060028761290f9190613c2c565b9650808061291c90613f76565b915050612782565b506000601e6001600360009054906101000a900463ffffffff166129489190613bf2565b6129529190613fa3565b905080600360006101000a81548163ffffffff021916908363ffffffff16021790555085600260008363ffffffff168152602001908152602001600020819055506001886129a09190613bf2565b600360046101000a81548163ffffffff021916908363ffffffff160217905550858884849b509b509b509b5050505050505050509193509193565b565b8280546129e990613f44565b90600052602060002090601f016020900481019282612a0b5760008555612a52565b82601f10612a2457805160ff1916838001178555612a52565b82800160010185558215612a52579182015b82811115612a51578251825591602001919060010190612a36565b5b509050612a5f9190612a63565b5090565b5b80821115612a7c576000816000905550600101612a64565b5090565b6000612a93612a8e84613aa7565b613a76565b905082815260208101848484011115612aab57600080fd5b612ab6848285613ed8565b509392505050565b600081359050612acd816140ae565b92915050565b600081905082602060020282011115612aeb57600080fd5b92915050565b600081905082602060060282011115612b0957600080fd5b92915050565b600081905082602060080282011115612b2757600080fd5b92915050565b600081519050612b3c816140c5565b92915050565b600081359050612b51816140dc565b92915050565b600081359050612b66816140f3565b92915050565b600082601f830112612b7d57600080fd5b8135612b8d848260208601612a80565b91505092915050565b600081359050612ba58161410a565b92915050565b600081519050612bba8161410a565b92915050565b600060208284031215612bd257600080fd5b6000612be084828501612abe565b91505092915050565b6000806101408385031215612bfd57600080fd5b6000612c0b85828601612b0f565b925050610100612c1d85828601612ad3565b9150509250929050565b6000806101c08385031215612c3b57600080fd5b6000612c4985828601612b0f565b925050610100612c5b85828601612af1565b9150509250929050565b600060208284031215612c7757600080fd5b6000612c8584828501612b2d565b91505092915050565b600060208284031215612ca057600080fd5b6000612cae84828501612b42565b91505092915050565b60008060408385031215612cca57600080fd5b6000612cd885828601612b42565b9250506020612ce985828601612b96565b9150509250929050565b600080600060608486031215612d0857600080fd5b6000612d1686828701612b57565b9350506020612d2786828701612b42565b9250506040612d3886828701612b42565b9150509250925092565b60008060408385031215612d5557600080fd5b600083013567ffffffffffffffff811115612d6f57600080fd5b612d7b85828601612b6c565b925050602083013567ffffffffffffffff811115612d9857600080fd5b612da485828601612b6c565b9150509250929050565b600060208284031215612dc057600080fd5b6000612dce84828501612b96565b91505092915050565b60008060408385031215612dea57600080fd5b6000612df885828601612b96565b9250506020612e0985828601612b96565b9150509250929050565b60008060408385031215612e2657600080fd5b6000612e3485828601612bab565b9250506020612e4585828601612bab565b9150509250929050565b6000612e5b8383612f6b565b60408301905092915050565b6000612e738383613038565b60208301905092915050565b6000612e8b838361357d565b60208301905092915050565b612ea081613de6565b82525050565b612eaf81613afb565b612eb98184613b4e565b9250612ec482613ad7565b8060005b83811015612ef5578151612edc8782612e4f565b9650612ee783613b27565b925050600181019050612ec8565b505050505050565b6000612f0882613b06565b612f128185613b59565b9350612f1d83613ae1565b8060005b83811015612f4e578151612f358882612e67565b9750612f4083613b34565b925050600181019050612f21565b5085935050505092915050565b612f6760408383613ed8565b5050565b612f7481613b11565b612f7e8184613b6a565b9250612f8982613af1565b8060005b83811015612fba578151612fa18782612e7f565b9650612fac83613b41565b925050600181019050612f8d565b505050505050565b612fcb81613b11565b612fd58184613b75565b9250612fe082613af1565b8060005b83811015613011578151612ff88782612e7f565b965061300383613b41565b925050600181019050612fe4565b505050505050565b61302560c08383613ed8565b5050565b61303281613df8565b82525050565b61304181613e04565b82525050565b61305081613e04565b82525050565b61305f81613e5a565b82525050565b61306e81613e7e565b82525050565b61307d81613ea2565b82525050565b61308c81613ec6565b82525050565b600061309d82613b1c565b6130a78185613b8b565b93506130b7818560208601613ee7565b6130c081614090565b840191505092915050565b60006130d8602683613b8b565b91507f4f776e61626c653a206e6577206f776e657220697320746865207a65726f206160008301527f64647265737300000000000000000000000000000000000000000000000000006020830152604082019050919050565b600061313e602483613b8b565b91507f436f6d6d69746d656e742068617320616c7265616479206265656e207665726960008301527f66696564000000000000000000000000000000000000000000000000000000006020830152604082019050919050565b60006131a4601d83613b8b565b91507f54686520636f6d6d69746d656e7420616c7265616479206578697374730000006000830152602082019050919050565b60006131e4602083613b8b565b91507f5f6c6566742073686f756c6420626520696e7369646520746865206669656c646000830152602082019050919050565b6000613224601383613b8b565b91507f4e6f20636f6d6d69746d656e7420666f756e64000000000000000000000000006000830152602082019050919050565b6000613264601f83613b8b565b91507f546865206e6f74652068617320616c7265616479206265656e207370656e74006000830152602082019050919050565b60006132a4602183613b8b565b91507f5f72696768742073686f756c6420626520696e7369646520746865206669656c60008301527f64000000000000000000000000000000000000000000000000000000000000006020830152604082019050919050565b600061330a601883613b8b565b91507f496e76616c6964207769746864726177616c2070726f6f6600000000000000006000830152602082019050919050565b600061334a602083613b8b565b91507f4f776e61626c653a2063616c6c6572206973206e6f7420746865206f776e65726000830152602082019050919050565b600061338a601883613b8b565b91507f496e76616c696420636f6d6d69746d656e742070726f6f6600000000000000006000830152602082019050919050565b60006133ca601b83613b8b565b91507f5061796d656e7420746f20726563697069656e74206661696c656400000000006000830152602082019050919050565b600061340a601983613b8b565b91507f5061796d656e7420746f2072656c61796572206661696c6564000000000000006000830152602082019050919050565b600061344a600083613b80565b9150600082019050919050565b6000613464600f83613b8b565b91507f416d6f756e74206d69736d6174636800000000000000000000000000000000006000830152602082019050919050565b60006134a4601383613b8b565b91507f496e646578206f7574206f6620626f756e6473000000000000000000000000006000830152602082019050919050565b60006134e4603083613b8b565b91507f4d65726b6c6520747265652069732066756c6c2e204e6f206d6f7265206c656160008301527f7665732063616e206265206164646564000000000000000000000000000000006020830152604082019050919050565b600061354a601f83613b8b565b91507f5265656e7472616e637947756172643a207265656e7472616e742063616c6c006000830152602082019050919050565b61358681613e40565b82525050565b61359581613e40565b82525050565b6135a481613e4a565b82525050565b60006135b58261343d565b9150819050919050565b60006020820190506135d46000830184612e97565b92915050565b6000610140820190506135f06000830187612fc2565b6135fd6040830186612ea6565b61360a60c0830185612fc2565b613618610100830184612f5b565b95945050505050565b60006101c0820190506136376000830187612fc2565b6136446040830186612ea6565b61365160c0830185612fc2565b61365f610100830184613019565b95945050505050565b600060208201905061367d6000830184613029565b92915050565b60006020820190506136986000830184613047565b92915050565b600060a0820190506136b36000830188613047565b6136c0602083018761359b565b81810360408301526136d28186612efd565b90506136e1606083018561359b565b6136ee608083018461358c565b9695505050505050565b600060208201905061370d6000830184613056565b92915050565b60006020820190506137286000830184613065565b92915050565b60006020820190506137436000830184613074565b92915050565b600060208201905081810360008301526137638184613092565b905092915050565b60006020820190508181036000830152613784816130cb565b9050919050565b600060208201905081810360008301526137a481613131565b9050919050565b600060208201905081810360008301526137c481613197565b9050919050565b600060208201905081810360008301526137e4816131d7565b9050919050565b6000602082019050818103600083015261380481613217565b9050919050565b6000602082019050818103600083015261382481613257565b9050919050565b6000602082019050818103600083015261384481613297565b9050919050565b60006020820190508181036000830152613864816132fd565b9050919050565b600060208201905081810360008301526138848161333d565b9050919050565b600060208201905081810360008301526138a48161337d565b9050919050565b600060208201905081810360008301526138c4816133bd565b9050919050565b600060208201905081810360008301526138e4816133fd565b9050919050565b6000602082019050818103600083015261390481613457565b9050919050565b6000602082019050818103600083015261392481613497565b9050919050565b60006020820190508181036000830152613944816134d7565b9050919050565b600060208201905081810360008301526139648161353d565b9050919050565b6000602082019050613980600083018461358c565b92915050565b600060408201905061399b600083018561358c565b6139a86020830184613029565b9392505050565b60006080820190506139c4600083018761358c565b6139d16020830186613047565b6139de6040830185612e97565b6139eb606083018461358c565b95945050505050565b6000604082019050613a09600083018561358c565b8181036020830152613a1b8184613092565b90509392505050565b6000606082019050613a39600083018661358c565b613a46602083018561358c565b613a536040830184613083565b949350505050565b6000602082019050613a70600083018461359b565b92915050565b6000604051905081810181811067ffffffffffffffff82111715613a9d57613a9c614061565b5b8060405250919050565b600067ffffffffffffffff821115613ac257613ac1614061565b5b601f19601f8301169050602081019050919050565b6000819050919050565b6000819050602082019050919050565b6000819050919050565b600060029050919050565b600081519050919050565b600060029050919050565b600081519050919050565b6000602082019050919050565b6000602082019050919050565b6000602082019050919050565b600081905092915050565b600082825260208201905092915050565b600081905092915050565b600081905092915050565b600081905092915050565b600082825260208201905092915050565b6000613ba782613e40565b9150613bb283613e40565b9250827fffffffffffffffffffffffffffffffffffffffffffffffffffffffffffffffff03821115613be757613be6613fd4565b5b828201905092915050565b6000613bfd82613e4a565b9150613c0883613e4a565b92508263ffffffff03821115613c2157613c20613fd4565b5b828201905092915050565b6000613c3782613e4a565b9150613c4283613e4a565b925082613c5257613c51614003565b5b828204905092915050565b6000808291508390505b6001851115613ca757808604811115613c8357613c82613fd4565b5b6001851615613c925780820291505b8081029050613ca0856140a1565b9450613c67565b94509492505050565b6000613cbb82613e4a565b9150613cc683613e4a565b9250613cd763ffffffff8484613cdf565b905092915050565b600082613cef5760019050613dab565b81613cfd5760009050613dab565b8160018114613d135760028114613d1d57613d4c565b6001915050613dab565b60ff841115613d2f57613d2e613fd4565b5b8360020a915084821115613d4657613d45613fd4565b5b50613dab565b5060208310610133831016604e8410600b8410161715613d815782820a905083811115613d7c57613d7b613fd4565b5b613dab565b613d8e8484846001613c5d565b92509050818404811115613da557613da4613fd4565b5b81810290505b9392505050565b6000613dbd82613e40565b9150613dc883613e40565b925082821015613ddb57613dda613fd4565b5b828203905092915050565b6000613df182613e20565b9050919050565b60008115159050919050565b6000819050919050565b6000613e1982613de6565b9050919050565b600073ffffffffffffffffffffffffffffffffffffffff82169050919050565b6000819050919050565b600063ffffffff82169050919050565b6000613e6582613e6c565b9050919050565b6000613e7782613e20565b9050919050565b6000613e8982613e90565b9050919050565b6000613e9b82613e20565b9050919050565b6000613ead82613eb4565b9050919050565b6000613ebf82613e20565b9050919050565b6000613ed182613e40565b9050919050565b82818337600083830152505050565b60005b83811015613f05578082015181840152602081019050613eea565b83811115613f14576000848401525b50505050565b6000613f2582613e4a565b91506000821415613f3957613f38613fd4565b5b600182039050919050565b60006002820490506001821680613f5c57607f821691505b60208210811415613f7057613f6f614032565b5b50919050565b6000613f8182613e4a565b915063ffffffff821415613f9857613f97613fd4565b5b600182019050919050565b6000613fae82613e4a565b9150613fb983613e4a565b925082613fc957613fc8614003565b5b828206905092915050565b7f4e487b7100000000000000000000000000000000000000000000000000000000600052601160045260246000fd5b7f4e487b7100000000000000000000000000000000000000000000000000000000600052601260045260246000fd5b7f4e487b7100000000000000000000000000000000000000000000000000000000600052602260045260246000fd5b7f4e487b7100000000000000000000000000000000000000000000000000000000600052604160045260246000fd5b6000601f19601f8301169050919050565b60008160011c9050919050565b6140b781613de6565b81146140c257600080fd5b50565b6140ce81613df8565b81146140d957600080fd5b50565b6140e581613e04565b81146140f057600080fd5b50565b6140fc81613e0e565b811461410757600080fd5b50565b61411381613e40565b811461411e57600080fd5b5056fea2646970667358221220134600eb57fa55198fcad1c03753a72d5f3bb179eccc6172fc96f37692455b3864736f6c63430008000033",
  "immutableReferences": {
    "228": [
      {
        "length": 32,
        "start": 5901
      },
      {
        "length": 32,
        "start": 7352
      }
    ],
    "231": [
      {
        "length": 32,
        "start": 2124
      },
      {
        "length": 32,
        "start": 2785
      }
    ],
    "722": [
      {
        "length": 32,
        "start": 1935
      },
      {
        "length": 32,
        "start": 8917
      },
      {
        "length": 32,
        "start": 10458
      }
    ]
  },
  "source": "// SPDX-License-Identifier: MIT\npragma solidity ^0.8.0;\n\nimport \"./AssetPool.sol\";\n\ncontract PaypalUSDCAssetPool is AssetPool {\n    mapping(address => string) public sellersPaypalAccount;\n    \n    constructor(\n        ICommitmentVerifier _commitmentVerifier,\n        IWithdrawalVerifier _withdrawalVerifier,\n        IHasher _hasher,\n        uint32 _merkleTreeHeight\n    ) AssetPool(_commitmentVerifier, \n                _withdrawalVerifier, \n                _hasher, \n                _merkleTreeHeight) {}\n\n    function configSeller(\n                            string memory _name,\n                            string memory _paypalEmailAddress\n                          ) external {\n        sellers[msg.sender].name = _name;\n        sellersPaypalAccount[msg.sender] = _paypalEmailAddress;\n    }\n\n    function _processCommitmentInsertion() internal override {\n    }\n\n    function _processWithdrawal(    \n                                address payable _recipient,\n                                address payable _relayer,\n                                uint256 _amount,\n                                uint256 _fee) \n                                internal override {\n        (bool success, ) = _recipient.call{ value: _amount - _fee }(\"\");\n\n        require(success, \"Payment to recipient failed\");\n\n        if (_fee > 0) {\n            (success, ) = _relayer.call{ value: _fee }(\"\");\n            require(success, \"Payment to relayer failed\");\n        }                                    \n    }\n}\n",
  "sourcePath": "/media/disk2/ubuntu/zkmarket-core/contracts/PaypalUSDCAssetPool.sol",
  "compiler": {
    "name": "solc",
    "version": "0.8.0+commit.c7dfd78e.Emscripten.clang"
  },
  "schemaVersion": "3.4.7",
  "updatedAt": "2022-08-16T14:24:56.834Z",
  "networkType": "ethereum",
  "devdoc": {
    "kind": "dev",
    "methods": {
      "getLastRoot()": {
        "details": "Returns the last root"
      },
      "hashLeftRight(address,bytes32,bytes32)": {
        "details": "Hash 2 tree leaves, returns MiMC(_left, _right)"
      },
      "isKnownRoot(bytes32)": {
        "details": "Whether the root is present in the root history"
      },
      "isSpent(bytes32)": {
        "details": "whether the nullifier is already spent *"
      },
      "owner()": {
        "details": "Returns the address of the current owner."
      },
      "proveCommitment(uint256[8],uint256[2])": {
        "details": "prove a `commitment` for a transaction has correct amount",
        "params": {
          "_proofData": ": zkSNARK proof _pi_a, _pi_b, _pic",
          "_publicInputs": ": [commitmentHash, amount]*"
        }
      },
      "registerCommitment(bytes32,uint256)": {
        "details": "register transacation by transaction Oracle service (i.e., Paypal Oracle)*"
      },
      "renounceOwnership()": {
        "details": "Leaves the contract without owner. It will not be possible to call `onlyOwner` functions anymore. Can only be called by the current owner. NOTE: Renouncing ownership will leave the contract without an owner, thereby removing any functionality that is only available to the owner."
      },
      "sellerDeposit()": {
        "details": "Deposit funds from seller*"
      },
      "transferOwnership(address)": {
        "details": "Transfers ownership of the contract to a new account (`newOwner`). Can only be called by the current owner."
      },
      "withdraw(uint256[8],uint256[6])": {
        "details": "Withdraw from asset pool.",
        "params": {
          "_proofData": ": zkSNARK proof (_pi_a, _pi_b, _pi_c)",
          "_publicInputs": ":[root, nullifierHash, recipient, amount, relayer, fee] - merkle root of all deposits in the contract - hash of unique deposit nullifier to prevent double spends - the recipient of funds - amount to be withdrew - relayer that relay the withdrawal request - the fee that goes to the transaction sender (usually a relayer)    *"
        }
      },
      "zeros(uint256)": {
        "details": "provides Zero (Empty) elements for a MiMC MerkleTree. Up to 20 levels"
      }
    },
    "version": 1
  },
  "userdoc": {
    "kind": "user",
    "methods": {},
    "version": 1
  }
}